{
  "_format": "hh-sol-artifact-1",
  "contractName": "RoboPunksNFT",
  "sourceName": "contracts/RoboPunksNFT.sol",
  "abi": [
    {
      "inputs": [],
      "stateMutability": "payable",
      "type": "constructor"
    },
    {
      "anonymous": false,
      "inputs": [
        {
          "indexed": true,
          "internalType": "address",
          "name": "owner",
          "type": "address"
        },
        {
          "indexed": true,
          "internalType": "address",
          "name": "approved",
          "type": "address"
        },
        {
          "indexed": true,
          "internalType": "uint256",
          "name": "tokenId",
          "type": "uint256"
        }
      ],
      "name": "Approval",
      "type": "event"
    },
    {
      "anonymous": false,
      "inputs": [
        {
          "indexed": true,
          "internalType": "address",
          "name": "owner",
          "type": "address"
        },
        {
          "indexed": true,
          "internalType": "address",
          "name": "operator",
          "type": "address"
        },
        {
          "indexed": false,
          "internalType": "bool",
          "name": "approved",
          "type": "bool"
        }
      ],
      "name": "ApprovalForAll",
      "type": "event"
    },
    {
      "anonymous": false,
      "inputs": [
        {
          "indexed": true,
          "internalType": "address",
          "name": "previousOwner",
          "type": "address"
        },
        {
          "indexed": true,
          "internalType": "address",
          "name": "newOwner",
          "type": "address"
        }
      ],
      "name": "OwnershipTransferred",
      "type": "event"
    },
    {
      "anonymous": false,
      "inputs": [
        {
          "indexed": true,
          "internalType": "address",
          "name": "from",
          "type": "address"
        },
        {
          "indexed": true,
          "internalType": "address",
          "name": "to",
          "type": "address"
        },
        {
          "indexed": true,
          "internalType": "uint256",
          "name": "tokenId",
          "type": "uint256"
        }
      ],
      "name": "Transfer",
      "type": "event"
    },
    {
      "inputs": [
        {
          "internalType": "address",
          "name": "to",
          "type": "address"
        },
        {
          "internalType": "uint256",
          "name": "tokenId",
          "type": "uint256"
        }
      ],
      "name": "approve",
      "outputs": [],
      "stateMutability": "nonpayable",
      "type": "function"
    },
    {
      "inputs": [
        {
          "internalType": "address",
          "name": "owner",
          "type": "address"
        }
      ],
      "name": "balanceOf",
      "outputs": [
        {
          "internalType": "uint256",
          "name": "",
          "type": "uint256"
        }
      ],
      "stateMutability": "view",
      "type": "function"
    },
    {
      "inputs": [
        {
          "internalType": "uint256",
          "name": "tokenId",
          "type": "uint256"
        }
      ],
      "name": "getApproved",
      "outputs": [
        {
          "internalType": "address",
          "name": "",
          "type": "address"
        }
      ],
      "stateMutability": "view",
      "type": "function"
    },
    {
      "inputs": [
        {
          "internalType": "address",
          "name": "owner",
          "type": "address"
        },
        {
          "internalType": "address",
          "name": "operator",
          "type": "address"
        }
      ],
      "name": "isApprovedForAll",
      "outputs": [
        {
          "internalType": "bool",
          "name": "",
          "type": "bool"
        }
      ],
      "stateMutability": "view",
      "type": "function"
    },
    {
      "inputs": [],
      "name": "isPublicMintEnabled",
      "outputs": [
        {
          "internalType": "bool",
          "name": "",
          "type": "bool"
        }
      ],
      "stateMutability": "view",
      "type": "function"
    },
    {
      "inputs": [],
      "name": "maxPerWallet",
      "outputs": [
        {
          "internalType": "uint256",
          "name": "",
          "type": "uint256"
        }
      ],
      "stateMutability": "view",
      "type": "function"
    },
    {
      "inputs": [],
      "name": "maxSupply",
      "outputs": [
        {
          "internalType": "uint256",
          "name": "",
          "type": "uint256"
        }
      ],
      "stateMutability": "view",
      "type": "function"
    },
    {
      "inputs": [
        {
          "internalType": "uint256",
          "name": "_quantity",
          "type": "uint256"
        }
      ],
      "name": "mint",
      "outputs": [],
      "stateMutability": "payable",
      "type": "function"
    },
    {
      "inputs": [],
      "name": "mintPrice",
      "outputs": [
        {
          "internalType": "uint256",
          "name": "",
          "type": "uint256"
        }
      ],
      "stateMutability": "view",
      "type": "function"
    },
    {
      "inputs": [],
      "name": "name",
      "outputs": [
        {
          "internalType": "string",
          "name": "",
          "type": "string"
        }
      ],
      "stateMutability": "view",
      "type": "function"
    },
    {
      "inputs": [],
      "name": "owner",
      "outputs": [
        {
          "internalType": "address",
          "name": "",
          "type": "address"
        }
      ],
      "stateMutability": "view",
      "type": "function"
    },
    {
      "inputs": [
        {
          "internalType": "uint256",
          "name": "tokenId",
          "type": "uint256"
        }
      ],
      "name": "ownerOf",
      "outputs": [
        {
          "internalType": "address",
          "name": "",
          "type": "address"
        }
      ],
      "stateMutability": "view",
      "type": "function"
    },
    {
      "inputs": [],
      "name": "renounceOwnership",
      "outputs": [],
      "stateMutability": "nonpayable",
      "type": "function"
    },
    {
      "inputs": [
        {
          "internalType": "address",
          "name": "from",
          "type": "address"
        },
        {
          "internalType": "address",
          "name": "to",
          "type": "address"
        },
        {
          "internalType": "uint256",
          "name": "tokenId",
          "type": "uint256"
        }
      ],
      "name": "safeTransferFrom",
      "outputs": [],
      "stateMutability": "nonpayable",
      "type": "function"
    },
    {
      "inputs": [
        {
          "internalType": "address",
          "name": "from",
          "type": "address"
        },
        {
          "internalType": "address",
          "name": "to",
          "type": "address"
        },
        {
          "internalType": "uint256",
          "name": "tokenId",
          "type": "uint256"
        },
        {
          "internalType": "bytes",
          "name": "data",
          "type": "bytes"
        }
      ],
      "name": "safeTransferFrom",
      "outputs": [],
      "stateMutability": "nonpayable",
      "type": "function"
    },
    {
      "inputs": [
        {
          "internalType": "address",
          "name": "operator",
          "type": "address"
        },
        {
          "internalType": "bool",
          "name": "approved",
          "type": "bool"
        }
      ],
      "name": "setApprovalForAll",
      "outputs": [],
      "stateMutability": "nonpayable",
      "type": "function"
    },
    {
      "inputs": [
        {
          "internalType": "string",
          "name": "_baseTokenUri",
          "type": "string"
        }
      ],
      "name": "setBaseTokenUri",
      "outputs": [],
      "stateMutability": "nonpayable",
      "type": "function"
    },
    {
      "inputs": [
        {
          "internalType": "bool",
          "name": "_isPublicMintEnabled",
          "type": "bool"
        }
      ],
      "name": "setIsPublicMintEnabled",
      "outputs": [],
      "stateMutability": "nonpayable",
      "type": "function"
    },
    {
      "inputs": [
        {
          "internalType": "bytes4",
          "name": "interfaceId",
          "type": "bytes4"
        }
      ],
      "name": "supportsInterface",
      "outputs": [
        {
          "internalType": "bool",
          "name": "",
          "type": "bool"
        }
      ],
      "stateMutability": "view",
      "type": "function"
    },
    {
      "inputs": [],
      "name": "symbol",
      "outputs": [
        {
          "internalType": "string",
          "name": "",
          "type": "string"
        }
      ],
      "stateMutability": "view",
      "type": "function"
    },
    {
      "inputs": [
        {
          "internalType": "uint256",
          "name": "_tokenId",
          "type": "uint256"
        }
      ],
      "name": "tokenURI",
      "outputs": [
        {
          "internalType": "string",
          "name": "",
          "type": "string"
        }
      ],
      "stateMutability": "view",
      "type": "function"
    },
    {
      "inputs": [],
      "name": "totalSupply",
      "outputs": [
        {
          "internalType": "uint256",
          "name": "",
          "type": "uint256"
        }
      ],
      "stateMutability": "view",
      "type": "function"
    },
    {
      "inputs": [
        {
          "internalType": "address",
          "name": "from",
          "type": "address"
        },
        {
          "internalType": "address",
          "name": "to",
          "type": "address"
        },
        {
          "internalType": "uint256",
          "name": "tokenId",
          "type": "uint256"
        }
      ],
      "name": "transferFrom",
      "outputs": [],
      "stateMutability": "nonpayable",
      "type": "function"
    },
    {
      "inputs": [
        {
          "internalType": "address",
          "name": "newOwner",
          "type": "address"
        }
      ],
      "name": "transferOwnership",
      "outputs": [],
      "stateMutability": "nonpayable",
      "type": "function"
    },
    {
      "inputs": [
        {
          "internalType": "address",
          "name": "",
          "type": "address"
        }
      ],
      "name": "walletMints",
      "outputs": [
        {
          "internalType": "uint256",
          "name": "",
          "type": "uint256"
        }
      ],
      "stateMutability": "view",
      "type": "function"
    },
    {
      "inputs": [],
      "name": "withdraw",
      "outputs": [],
      "stateMutability": "nonpayable",
      "type": "function"
    },
    {
      "inputs": [],
      "name": "withdrawAddress",
      "outputs": [
        {
          "internalType": "address payable",
          "name": "",
          "type": "address"
        }
      ],
      "stateMutability": "view",
      "type": "function"
    }
  ],
  "bytecode": "0x60806040526040518060400160405280600981526020017f526f626f50756e6b7300000000000000000000000000000000000000000000008152506040518060400160405280600281526020017f5250000000000000000000000000000000000000000000000000000000000000815250816000908051906020019062000088929190620001bf565b508060019080519060200190620000a1929190620001bf565b505050620000c4620000b8620000f160201b60201c565b620000f960201b60201c565b66470de4df82000060078190555060006008819055506103e86009819055506003600a81905550620002d4565b600033905090565b6000600660009054906101000a900473ffffffffffffffffffffffffffffffffffffffff16905081600660006101000a81548173ffffffffffffffffffffffffffffffffffffffff021916908373ffffffffffffffffffffffffffffffffffffffff1602179055508173ffffffffffffffffffffffffffffffffffffffff168173ffffffffffffffffffffffffffffffffffffffff167f8be0079c531659141344cd1fd0a4f28419497f9722a3daafe3b4186f6b6457e060405160405180910390a35050565b828054620001cd906200029e565b90600052602060002090601f016020900481019282620001f157600085556200023d565b82601f106200020c57805160ff19168380011785556200023d565b828001600101855582156200023d579182015b828111156200023c5782518255916020019190600101906200021f565b5b5090506200024c919062000250565b5090565b5b808211156200026b57600081600090555060010162000251565b5090565b7f4e487b7100000000000000000000000000000000000000000000000000000000600052602260045260246000fd5b60006002820490506001821680620002b757607f821691505b60208210811415620002ce57620002cd6200026f565b5b50919050565b61355180620002e46000396000f3fe60806040526004361061019c5760003560e01c80636817c76c116100ec578063a22cb4651161008a578063d5abeb0111610064578063d5abeb0114610593578063e985e9c5146105be578063f0293fd3146105fb578063f2fde38b146106385761019c565b8063a22cb46514610504578063b88d4fde1461052d578063c87b56dd146105565761019c565b80638da5cb5b116100c65780638da5cb5b1461046957806395652cfa1461049457806395d89b41146104bd578063a0712d68146104e85761019c565b80636817c76c146103ea57806370a0823114610415578063715018a6146104525761019c565b806318160ddd116101595780633ccfd60b116101335780633ccfd60b1461034257806342842e0e14610359578063453c2310146103825780636352211e146103ad5761019c565b806318160ddd146102c55780632373ac22146102f057806323b872dd146103195761019c565b80630116bc2d146101a157806301ffc9a7146101cc57806306fdde0314610209578063081812fc14610234578063095ea7b3146102715780631581b6001461029a575b600080fd5b3480156101ad57600080fd5b506101b6610661565b6040516101c391906120fd565b60405180910390f35b3480156101d857600080fd5b506101f360048036038101906101ee9190612184565b610674565b60405161020091906120fd565b60405180910390f35b34801561021557600080fd5b5061021e610756565b60405161022b919061224a565b60405180910390f35b34801561024057600080fd5b5061025b600480360381019061025691906122a2565b6107e8565b6040516102689190612310565b60405180910390f35b34801561027d57600080fd5b5061029860048036038101906102939190612357565b61082e565b005b3480156102a657600080fd5b506102af610946565b6040516102bc91906123b8565b60405180910390f35b3480156102d157600080fd5b506102da61096c565b6040516102e791906123e2565b60405180910390f35b3480156102fc57600080fd5b5061031760048036038101906103129190612429565b610972565b005b34801561032557600080fd5b50610340600480360381019061033b9190612456565b610997565b005b34801561034e57600080fd5b506103576109f7565b005b34801561036557600080fd5b50610380600480360381019061037b9190612456565b610ad0565b005b34801561038e57600080fd5b50610397610af0565b6040516103a491906123e2565b60405180910390f35b3480156103b957600080fd5b506103d460048036038101906103cf91906122a2565b610af6565b6040516103e19190612310565b60405180910390f35b3480156103f657600080fd5b506103ff610b7d565b60405161040c91906123e2565b60405180910390f35b34801561042157600080fd5b5061043c600480360381019061043791906124a9565b610b83565b60405161044991906123e2565b60405180910390f35b34801561045e57600080fd5b50610467610c3b565b005b34801561047557600080fd5b5061047e610c4f565b60405161048b9190612310565b60405180910390f35b3480156104a057600080fd5b506104bb60048036038101906104b6919061253b565b610c79565b005b3480156104c957600080fd5b506104d2610c97565b6040516104df919061224a565b60405180910390f35b61050260048036038101906104fd91906122a2565b610d29565b005b34801561051057600080fd5b5061052b60048036038101906105269190612588565b610efd565b005b34801561053957600080fd5b50610554600480360381019061054f91906126f8565b610f13565b005b34801561056257600080fd5b5061057d600480360381019061057891906122a2565b610f75565b60405161058a919061224a565b60405180910390f35b34801561059f57600080fd5b506105a8610ff1565b6040516105b591906123e2565b60405180910390f35b3480156105ca57600080fd5b506105e560048036038101906105e0919061277b565b610ff7565b6040516105f291906120fd565b60405180910390f35b34801561060757600080fd5b50610622600480360381019061061d91906124a9565b61108b565b60405161062f91906123e2565b60405180910390f35b34801561064457600080fd5b5061065f600480360381019061065a91906124a9565b6110a3565b005b600b60009054906101000a900460ff1681565b60007f80ac58cd000000000000000000000000000000000000000000000000000000007bffffffffffffffffffffffffffffffffffffffffffffffffffffffff1916827bffffffffffffffffffffffffffffffffffffffffffffffffffffffff1916148061073f57507f5b5e139f000000000000000000000000000000000000000000000000000000007bffffffffffffffffffffffffffffffffffffffffffffffffffffffff1916827bffffffffffffffffffffffffffffffffffffffffffffffffffffffff1916145b8061074f575061074e82611127565b5b9050919050565b606060008054610765906127ea565b80601f0160208091040260200160405190810160405280929190818152602001828054610791906127ea565b80156107de5780601f106107b3576101008083540402835291602001916107de565b820191906000526020600020905b8154815290600101906020018083116107c157829003601f168201915b5050505050905090565b60006107f382611191565b6004600083815260200190815260200160002060009054906101000a900473ffffffffffffffffffffffffffffffffffffffff169050919050565b600061083982610af6565b90508073ffffffffffffffffffffffffffffffffffffffff168373ffffffffffffffffffffffffffffffffffffffff1614156108aa576040517f08c379a00000000000000000000000000000000000000000000000000000000081526004016108a19061288e565b60405180910390fd5b8073ffffffffffffffffffffffffffffffffffffffff166108c96111dc565b73ffffffffffffffffffffffffffffffffffffffff1614806108f857506108f7816108f26111dc565b610ff7565b5b610937576040517f08c379a000000000000000000000000000000000000000000000000000000000815260040161092e90612920565b60405180910390fd5b61094183836111e4565b505050565b600d60009054906101000a900473ffffffffffffffffffffffffffffffffffffffff1681565b60085481565b61097a61129d565b80600b60006101000a81548160ff02191690831515021790555050565b6109a86109a26111dc565b8261131b565b6109e7576040517f08c379a00000000000000000000000000000000000000000000000000000000081526004016109de906129b2565b60405180910390fd5b6109f28383836113b0565b505050565b6109ff61129d565b6000600d60009054906101000a900473ffffffffffffffffffffffffffffffffffffffff1673ffffffffffffffffffffffffffffffffffffffff1647604051610a4790612a03565b60006040518083038185875af1925050503d8060008114610a84576040519150601f19603f3d011682016040523d82523d6000602084013e610a89565b606091505b5050905080610acd576040517f08c379a0000000000000000000000000000000000000000000000000000000008152600401610ac490612a64565b60405180910390fd5b50565b610aeb83838360405180602001604052806000815250610f13565b505050565b600a5481565b600080610b02836116aa565b9050600073ffffffffffffffffffffffffffffffffffffffff168173ffffffffffffffffffffffffffffffffffffffff161415610b74576040517f08c379a0000000000000000000000000000000000000000000000000000000008152600401610b6b90612ad0565b60405180910390fd5b80915050919050565b60075481565b60008073ffffffffffffffffffffffffffffffffffffffff168273ffffffffffffffffffffffffffffffffffffffff161415610bf4576040517f08c379a0000000000000000000000000000000000000000000000000000000008152600401610beb90612b62565b60405180910390fd5b600360008373ffffffffffffffffffffffffffffffffffffffff1673ffffffffffffffffffffffffffffffffffffffff168152602001908152602001600020549050919050565b610c4361129d565b610c4d60006116e7565b565b6000600660009054906101000a900473ffffffffffffffffffffffffffffffffffffffff16905090565b610c8161129d565b8181600c9190610c9292919061203f565b505050565b606060018054610ca6906127ea565b80601f0160208091040260200160405190810160405280929190818152602001828054610cd2906127ea565b8015610d1f5780601f10610cf457610100808354040283529160200191610d1f565b820191906000526020600020905b815481529060010190602001808311610d0257829003601f168201915b5050505050905090565b600b60009054906101000a900460ff16610d78576040517f08c379a0000000000000000000000000000000000000000000000000000000008152600401610d6f90612bce565b60405180910390fd5b60075481610d869190612c1d565b3414610dc7576040517f08c379a0000000000000000000000000000000000000000000000000000000008152600401610dbe90612cc3565b60405180910390fd5b60095481600854610dd89190612ce3565b1115610e19576040517f08c379a0000000000000000000000000000000000000000000000000000000008152600401610e1090612d85565b60405180910390fd5b600a5481600e60003373ffffffffffffffffffffffffffffffffffffffff1673ffffffffffffffffffffffffffffffffffffffff16815260200190815260200160002054610e679190612ce3565b1115610ea8576040517f08c379a0000000000000000000000000000000000000000000000000000000008152600401610e9f90612df1565b60405180910390fd5b60005b81811015610ef95760006001600854610ec49190612ce3565b90506001600854610ed59190612ce3565b600881905550610ee533826117ad565b508080610ef190612e11565b915050610eab565b5050565b610f0f610f086111dc565b83836117cb565b5050565b610f24610f1e6111dc565b8361131b565b610f63576040517f08c379a0000000000000000000000000000000000000000000000000000000008152600401610f5a906129b2565b60405180910390fd5b610f6f84848484611938565b50505050565b6060610f8082611994565b610fbf576040517f08c379a0000000000000000000000000000000000000000000000000000000008152600401610fb690612ea6565b60405180910390fd5b600c610fca836119d5565b604051602001610fdb929190612fe2565b6040516020818303038152906040529050919050565b60095481565b6000600560008473ffffffffffffffffffffffffffffffffffffffff1673ffffffffffffffffffffffffffffffffffffffff16815260200190815260200160002060008373ffffffffffffffffffffffffffffffffffffffff1673ffffffffffffffffffffffffffffffffffffffff16815260200190815260200160002060009054906101000a900460ff16905092915050565b600e6020528060005260406000206000915090505481565b6110ab61129d565b600073ffffffffffffffffffffffffffffffffffffffff168173ffffffffffffffffffffffffffffffffffffffff16141561111b576040517f08c379a000000000000000000000000000000000000000000000000000000000815260040161111290613083565b60405180910390fd5b611124816116e7565b50565b60007f01ffc9a7000000000000000000000000000000000000000000000000000000007bffffffffffffffffffffffffffffffffffffffffffffffffffffffff1916827bffffffffffffffffffffffffffffffffffffffffffffffffffffffff1916149050919050565b61119a81611994565b6111d9576040517f08c379a00000000000000000000000000000000000000000000000000000000081526004016111d090612ad0565b60405180910390fd5b50565b600033905090565b816004600083815260200190815260200160002060006101000a81548173ffffffffffffffffffffffffffffffffffffffff021916908373ffffffffffffffffffffffffffffffffffffffff160217905550808273ffffffffffffffffffffffffffffffffffffffff1661125783610af6565b73ffffffffffffffffffffffffffffffffffffffff167f8c5be1e5ebec7d5bd14f71427d1e84f3dd0314c0f7b2291e5b200ac8c7c3b92560405160405180910390a45050565b6112a56111dc565b73ffffffffffffffffffffffffffffffffffffffff166112c3610c4f565b73ffffffffffffffffffffffffffffffffffffffff1614611319576040517f08c379a0000000000000000000000000000000000000000000000000000000008152600401611310906130ef565b60405180910390fd5b565b60008061132783610af6565b90508073ffffffffffffffffffffffffffffffffffffffff168473ffffffffffffffffffffffffffffffffffffffff16148061136957506113688185610ff7565b5b806113a757508373ffffffffffffffffffffffffffffffffffffffff1661138f846107e8565b73ffffffffffffffffffffffffffffffffffffffff16145b91505092915050565b8273ffffffffffffffffffffffffffffffffffffffff166113d082610af6565b73ffffffffffffffffffffffffffffffffffffffff1614611426576040517f08c379a000000000000000000000000000000000000000000000000000000000815260040161141d90613181565b60405180910390fd5b600073ffffffffffffffffffffffffffffffffffffffff168273ffffffffffffffffffffffffffffffffffffffff161415611496576040517f08c379a000000000000000000000000000000000000000000000000000000000815260040161148d90613213565b60405180910390fd5b6114a38383836001611aad565b8273ffffffffffffffffffffffffffffffffffffffff166114c382610af6565b73ffffffffffffffffffffffffffffffffffffffff1614611519576040517f08c379a000000000000000000000000000000000000000000000000000000000815260040161151090613181565b60405180910390fd5b6004600082815260200190815260200160002060006101000a81549073ffffffffffffffffffffffffffffffffffffffff02191690556001600360008573ffffffffffffffffffffffffffffffffffffffff1673ffffffffffffffffffffffffffffffffffffffff168152602001908152602001600020600082825403925050819055506001600360008473ffffffffffffffffffffffffffffffffffffffff1673ffffffffffffffffffffffffffffffffffffffff16815260200190815260200160002060008282540192505081905550816002600083815260200190815260200160002060006101000a81548173ffffffffffffffffffffffffffffffffffffffff021916908373ffffffffffffffffffffffffffffffffffffffff160217905550808273ffffffffffffffffffffffffffffffffffffffff168473ffffffffffffffffffffffffffffffffffffffff167fddf252ad1be2c89b69c2b068fc378daa952ba7f163c4a11628f55a4df523b3ef60405160405180910390a46116a58383836001611ab3565b505050565b60006002600083815260200190815260200160002060009054906101000a900473ffffffffffffffffffffffffffffffffffffffff169050919050565b6000600660009054906101000a900473ffffffffffffffffffffffffffffffffffffffff16905081600660006101000a81548173ffffffffffffffffffffffffffffffffffffffff021916908373ffffffffffffffffffffffffffffffffffffffff1602179055508173ffffffffffffffffffffffffffffffffffffffff168173ffffffffffffffffffffffffffffffffffffffff167f8be0079c531659141344cd1fd0a4f28419497f9722a3daafe3b4186f6b6457e060405160405180910390a35050565b6117c7828260405180602001604052806000815250611ab9565b5050565b8173ffffffffffffffffffffffffffffffffffffffff168373ffffffffffffffffffffffffffffffffffffffff16141561183a576040517f08c379a00000000000000000000000000000000000000000000000000000000081526004016118319061327f565b60405180910390fd5b80600560008573ffffffffffffffffffffffffffffffffffffffff1673ffffffffffffffffffffffffffffffffffffffff16815260200190815260200160002060008473ffffffffffffffffffffffffffffffffffffffff1673ffffffffffffffffffffffffffffffffffffffff16815260200190815260200160002060006101000a81548160ff0219169083151502179055508173ffffffffffffffffffffffffffffffffffffffff168373ffffffffffffffffffffffffffffffffffffffff167f17307eab39ab6107e8899845ad3d59bd9653f200f220920489ca2b5937696c318360405161192b91906120fd565b60405180910390a3505050565b6119438484846113b0565b61194f84848484611b14565b61198e576040517f08c379a000000000000000000000000000000000000000000000000000000000815260040161198590613311565b60405180910390fd5b50505050565b60008073ffffffffffffffffffffffffffffffffffffffff166119b6836116aa565b73ffffffffffffffffffffffffffffffffffffffff1614159050919050565b6060600060016119e484611cab565b01905060008167ffffffffffffffff811115611a0357611a026125cd565b5b6040519080825280601f01601f191660200182016040528015611a355781602001600182028036833780820191505090505b509050600082602001820190505b600115611aa2578080600190039150507f3031323334353637383961626364656600000000000000000000000000000000600a86061a8153600a8581611a8c57611a8b613331565b5b0494506000851415611a9d57611aa2565b611a43565b819350505050919050565b50505050565b50505050565b611ac38383611dfe565b611ad06000848484611b14565b611b0f576040517f08c379a0000000000000000000000000000000000000000000000000000000008152600401611b0690613311565b60405180910390fd5b505050565b6000611b358473ffffffffffffffffffffffffffffffffffffffff1661201c565b15611c9e578373ffffffffffffffffffffffffffffffffffffffff1663150b7a02611b5e6111dc565b8786866040518563ffffffff1660e01b8152600401611b8094939291906133b5565b602060405180830381600087803b158015611b9a57600080fd5b505af1925050508015611bcb57506040513d601f19601f82011682018060405250810190611bc89190613416565b60015b611c4e573d8060008114611bfb576040519150601f19603f3d011682016040523d82523d6000602084013e611c00565b606091505b50600081511415611c46576040517f08c379a0000000000000000000000000000000000000000000000000000000008152600401611c3d90613311565b60405180910390fd5b805181602001fd5b63150b7a0260e01b7bffffffffffffffffffffffffffffffffffffffffffffffffffffffff1916817bffffffffffffffffffffffffffffffffffffffffffffffffffffffff191614915050611ca3565b600190505b949350505050565b600080600090507a184f03e93ff9f4daa797ed6e38ed64bf6a1f0100000000000000008310611d09577a184f03e93ff9f4daa797ed6e38ed64bf6a1f0100000000000000008381611cff57611cfe613331565b5b0492506040810190505b6d04ee2d6d415b85acef81000000008310611d46576d04ee2d6d415b85acef81000000008381611d3c57611d3b613331565b5b0492506020810190505b662386f26fc100008310611d7557662386f26fc100008381611d6b57611d6a613331565b5b0492506010810190505b6305f5e1008310611d9e576305f5e1008381611d9457611d93613331565b5b0492506008810190505b6127108310611dc3576127108381611db957611db8613331565b5b0492506004810190505b60648310611de65760648381611ddc57611ddb613331565b5b0492506002810190505b600a8310611df5576001810190505b80915050919050565b600073ffffffffffffffffffffffffffffffffffffffff168273ffffffffffffffffffffffffffffffffffffffff161415611e6e576040517f08c379a0000000000000000000000000000000000000000000000000000000008152600401611e659061348f565b60405180910390fd5b611e7781611994565b15611eb7576040517f08c379a0000000000000000000000000000000000000000000000000000000008152600401611eae906134fb565b60405180910390fd5b611ec5600083836001611aad565b611ece81611994565b15611f0e576040517f08c379a0000000000000000000000000000000000000000000000000000000008152600401611f05906134fb565b60405180910390fd5b6001600360008473ffffffffffffffffffffffffffffffffffffffff1673ffffffffffffffffffffffffffffffffffffffff16815260200190815260200160002060008282540192505081905550816002600083815260200190815260200160002060006101000a81548173ffffffffffffffffffffffffffffffffffffffff021916908373ffffffffffffffffffffffffffffffffffffffff160217905550808273ffffffffffffffffffffffffffffffffffffffff16600073ffffffffffffffffffffffffffffffffffffffff167fddf252ad1be2c89b69c2b068fc378daa952ba7f163c4a11628f55a4df523b3ef60405160405180910390a4612018600083836001611ab3565b5050565b6000808273ffffffffffffffffffffffffffffffffffffffff163b119050919050565b82805461204b906127ea565b90600052602060002090601f01602090048101928261206d57600085556120b4565b82601f1061208657803560ff19168380011785556120b4565b828001600101855582156120b4579182015b828111156120b3578235825591602001919060010190612098565b5b5090506120c191906120c5565b5090565b5b808211156120de5760008160009055506001016120c6565b5090565b60008115159050919050565b6120f7816120e2565b82525050565b600060208201905061211260008301846120ee565b92915050565b6000604051905090565b600080fd5b600080fd5b60007fffffffff0000000000000000000000000000000000000000000000000000000082169050919050565b6121618161212c565b811461216c57600080fd5b50565b60008135905061217e81612158565b92915050565b60006020828403121561219a57612199612122565b5b60006121a88482850161216f565b91505092915050565b600081519050919050565b600082825260208201905092915050565b60005b838110156121eb5780820151818401526020810190506121d0565b838111156121fa576000848401525b50505050565b6000601f19601f8301169050919050565b600061221c826121b1565b61222681856121bc565b93506122368185602086016121cd565b61223f81612200565b840191505092915050565b600060208201905081810360008301526122648184612211565b905092915050565b6000819050919050565b61227f8161226c565b811461228a57600080fd5b50565b60008135905061229c81612276565b92915050565b6000602082840312156122b8576122b7612122565b5b60006122c68482850161228d565b91505092915050565b600073ffffffffffffffffffffffffffffffffffffffff82169050919050565b60006122fa826122cf565b9050919050565b61230a816122ef565b82525050565b60006020820190506123256000830184612301565b92915050565b612334816122ef565b811461233f57600080fd5b50565b6000813590506123518161232b565b92915050565b6000806040838503121561236e5761236d612122565b5b600061237c85828601612342565b925050602061238d8582860161228d565b9150509250929050565b60006123a2826122cf565b9050919050565b6123b281612397565b82525050565b60006020820190506123cd60008301846123a9565b92915050565b6123dc8161226c565b82525050565b60006020820190506123f760008301846123d3565b92915050565b612406816120e2565b811461241157600080fd5b50565b600081359050612423816123fd565b92915050565b60006020828403121561243f5761243e612122565b5b600061244d84828501612414565b91505092915050565b60008060006060848603121561246f5761246e612122565b5b600061247d86828701612342565b935050602061248e86828701612342565b925050604061249f8682870161228d565b9150509250925092565b6000602082840312156124bf576124be612122565b5b60006124cd84828501612342565b91505092915050565b600080fd5b600080fd5b600080fd5b60008083601f8401126124fb576124fa6124d6565b5b8235905067ffffffffffffffff811115612518576125176124db565b5b602083019150836001820283011115612534576125336124e0565b5b9250929050565b6000806020838503121561255257612551612122565b5b600083013567ffffffffffffffff8111156125705761256f612127565b5b61257c858286016124e5565b92509250509250929050565b6000806040838503121561259f5761259e612122565b5b60006125ad85828601612342565b92505060206125be85828601612414565b9150509250929050565b600080fd5b7f4e487b7100000000000000000000000000000000000000000000000000000000600052604160045260246000fd5b61260582612200565b810181811067ffffffffffffffff82111715612624576126236125cd565b5b80604052505050565b6000612637612118565b905061264382826125fc565b919050565b600067ffffffffffffffff821115612663576126626125cd565b5b61266c82612200565b9050602081019050919050565b82818337600083830152505050565b600061269b61269684612648565b61262d565b9050828152602081018484840111156126b7576126b66125c8565b5b6126c2848285612679565b509392505050565b600082601f8301126126df576126de6124d6565b5b81356126ef848260208601612688565b91505092915050565b6000806000806080858703121561271257612711612122565b5b600061272087828801612342565b945050602061273187828801612342565b93505060406127428782880161228d565b925050606085013567ffffffffffffffff81111561276357612762612127565b5b61276f878288016126ca565b91505092959194509250565b6000806040838503121561279257612791612122565b5b60006127a085828601612342565b92505060206127b185828601612342565b9150509250929050565b7f4e487b7100000000000000000000000000000000000000000000000000000000600052602260045260246000fd5b6000600282049050600182168061280257607f821691505b60208210811415612816576128156127bb565b5b50919050565b7f4552433732313a20617070726f76616c20746f2063757272656e74206f776e6560008201527f7200000000000000000000000000000000000000000000000000000000000000602082015250565b60006128786021836121bc565b91506128838261281c565b604082019050919050565b600060208201905081810360008301526128a78161286b565b9050919050565b7f4552433732313a20617070726f76652063616c6c6572206973206e6f7420746f60008201527f6b656e206f776e6572206f7220617070726f76656420666f7220616c6c000000602082015250565b600061290a603d836121bc565b9150612915826128ae565b604082019050919050565b60006020820190508181036000830152612939816128fd565b9050919050565b7f4552433732313a2063616c6c6572206973206e6f7420746f6b656e206f776e6560008201527f72206f7220617070726f76656400000000000000000000000000000000000000602082015250565b600061299c602d836121bc565b91506129a782612940565b604082019050919050565b600060208201905081810360008301526129cb8161298f565b9050919050565b600081905092915050565b50565b60006129ed6000836129d2565b91506129f8826129dd565b600082019050919050565b6000612a0e826129e0565b9150819050919050565b7f5769746864726177206661696c65642e00000000000000000000000000000000600082015250565b6000612a4e6010836121bc565b9150612a5982612a18565b602082019050919050565b60006020820190508181036000830152612a7d81612a41565b9050919050565b7f4552433732313a20696e76616c696420746f6b656e2049440000000000000000600082015250565b6000612aba6018836121bc565b9150612ac582612a84565b602082019050919050565b60006020820190508181036000830152612ae981612aad565b9050919050565b7f4552433732313a2061646472657373207a65726f206973206e6f74206120766160008201527f6c6964206f776e65720000000000000000000000000000000000000000000000602082015250565b6000612b4c6029836121bc565b9150612b5782612af0565b604082019050919050565b60006020820190508181036000830152612b7b81612b3f565b9050919050565b7f5075626c6963206d696e74696e67206973206e6f7420656e61626c6564000000600082015250565b6000612bb8601d836121bc565b9150612bc382612b82565b602082019050919050565b60006020820190508181036000830152612be781612bab565b9050919050565b7f4e487b7100000000000000000000000000000000000000000000000000000000600052601160045260246000fd5b6000612c288261226c565b9150612c338361226c565b9250817fffffffffffffffffffffffffffffffffffffffffffffffffffffffffffffffff0483118215151615612c6c57612c6b612bee565b5b828202905092915050565b7f496e636f7272656374204554482076616c756500000000000000000000000000600082015250565b6000612cad6013836121bc565b9150612cb882612c77565b602082019050919050565b60006020820190508181036000830152612cdc81612ca0565b9050919050565b6000612cee8261226c565b9150612cf98361226c565b9250827fffffffffffffffffffffffffffffffffffffffffffffffffffffffffffffffff03821115612d2e57612d2d612bee565b5b828201905092915050565b7f4e6f7420656e6f75676820737570706c79000000000000000000000000000000600082015250565b6000612d6f6011836121bc565b9150612d7a82612d39565b602082019050919050565b60006020820190508181036000830152612d9e81612d62565b9050919050565b7f4d6178207065722077616c6c6574206578636565646564000000000000000000600082015250565b6000612ddb6017836121bc565b9150612de682612da5565b602082019050919050565b60006020820190508181036000830152612e0a81612dce565b9050919050565b6000612e1c8261226c565b91507fffffffffffffffffffffffffffffffffffffffffffffffffffffffffffffffff821415612e4f57612e4e612bee565b5b600182019050919050565b7f546f6b656e20646f6573206e6f74206578697374000000000000000000000000600082015250565b6000612e906014836121bc565b9150612e9b82612e5a565b602082019050919050565b60006020820190508181036000830152612ebf81612e83565b9050919050565b600081905092915050565b60008190508160005260206000209050919050565b60008154612ef3816127ea565b612efd8186612ec6565b94506001821660008114612f185760018114612f2957612f5c565b60ff19831686528186019350612f5c565b612f3285612ed1565b60005b83811015612f5457815481890152600182019150602081019050612f35565b838801955050505b50505092915050565b6000612f70826121b1565b612f7a8185612ec6565b9350612f8a8185602086016121cd565b80840191505092915050565b7f2e6a736f6e000000000000000000000000000000000000000000000000000000600082015250565b6000612fcc600583612ec6565b9150612fd782612f96565b600582019050919050565b6000612fee8285612ee6565b9150612ffa8284612f65565b915061300582612fbf565b91508190509392505050565b7f4f776e61626c653a206e6577206f776e657220697320746865207a65726f206160008201527f6464726573730000000000000000000000000000000000000000000000000000602082015250565b600061306d6026836121bc565b915061307882613011565b604082019050919050565b6000602082019050818103600083015261309c81613060565b9050919050565b7f4f776e61626c653a2063616c6c6572206973206e6f7420746865206f776e6572600082015250565b60006130d96020836121bc565b91506130e4826130a3565b602082019050919050565b60006020820190508181036000830152613108816130cc565b9050919050565b7f4552433732313a207472616e736665722066726f6d20696e636f72726563742060008201527f6f776e6572000000000000000000000000000000000000000000000000000000602082015250565b600061316b6025836121bc565b91506131768261310f565b604082019050919050565b6000602082019050818103600083015261319a8161315e565b9050919050565b7f4552433732313a207472616e7366657220746f20746865207a65726f2061646460008201527f7265737300000000000000000000000000000000000000000000000000000000602082015250565b60006131fd6024836121bc565b9150613208826131a1565b604082019050919050565b6000602082019050818103600083015261322c816131f0565b9050919050565b7f4552433732313a20617070726f766520746f2063616c6c657200000000000000600082015250565b60006132696019836121bc565b915061327482613233565b602082019050919050565b600060208201905081810360008301526132988161325c565b9050919050565b7f4552433732313a207472616e7366657220746f206e6f6e20455243373231526560008201527f63656976657220696d706c656d656e7465720000000000000000000000000000602082015250565b60006132fb6032836121bc565b91506133068261329f565b604082019050919050565b6000602082019050818103600083015261332a816132ee565b9050919050565b7f4e487b7100000000000000000000000000000000000000000000000000000000600052601260045260246000fd5b600081519050919050565b600082825260208201905092915050565b600061338782613360565b613391818561336b565b93506133a18185602086016121cd565b6133aa81612200565b840191505092915050565b60006080820190506133ca6000830187612301565b6133d76020830186612301565b6133e460408301856123d3565b81810360608301526133f6818461337c565b905095945050505050565b60008151905061341081612158565b92915050565b60006020828403121561342c5761342b612122565b5b600061343a84828501613401565b91505092915050565b7f4552433732313a206d696e7420746f20746865207a65726f2061646472657373600082015250565b60006134796020836121bc565b915061348482613443565b602082019050919050565b600060208201905081810360008301526134a88161346c565b9050919050565b7f4552433732313a20746f6b656e20616c7265616479206d696e74656400000000600082015250565b60006134e5601c836121bc565b91506134f0826134af565b602082019050919050565b60006020820190508181036000830152613514816134d8565b905091905056fea2646970667358221220525dee7f8b3ca6d21ebd8954fb976e1d6543bedca34a90fa45d968fd7787843d64736f6c63430008090033",
  "linkReferences": {},
  "deployedLinkReferences": {}
}